:020000040000FA
:060000008FEF13F0120067
:020006001200E6
:08000800F2A402D066EF0FF034
:100010009EA002D0D5EF0FF09EA202D032EF10F0DA
:080020001200D08EF28E1200D6
:0800280004003C2A0000200F37
:100030000000020000003B2A0000230F0000010026
:100040000000252A0000000F0000160000005027C5
:0A005000000000090000D5020000C6
:06005A00D9CFE6FFE1CF63
:10006000D9FFE652FE0EDBCFE6FF010EF36EFD0E6A
:10007000DB5004E0D890F336E806FCE1F350E5529B
:10008000E71402E0010E01D0000EDF6EDF5000D059
:10009000E552E552E7CFD9FF1200D9CFE6FFE1CF15
:1000A000D9FF010EF36EFC0EDB5004E0D890F3365E
:1000B000E806FCE1F350106EFD0EDBCFE9FFFE0E0B
:1000C000DBCFEAFF1050EF12E552E7CFD9FF120065
:1000D000D9CFE6FFE1CFD9FF010EF36EFC0EDB5066
:1000E00004E0D890F336E806FCE1F350E81C106E0B
:1000F000FD0EDBCFE9FFFE0EDBCFEAFF1050EF165F
:10010000E552E7CFD9FF1200D9CFE6FFE1CFD9FF03
:10011000030EE126DF6A040EDF5C01E31ED1DF2857
:10012000E66EDF50B50DF3CFE9FFF4CFEAFF000E26
:10013000E926090EEA22E552E750EF6EDF50B50DD1
:10014000F3CFE9FFF4CFEAFF000EE926090EEA2219
:10015000EE52EF6ADF50B50DF3CFE9FFF4CFEAFFBF
:10016000000EE926090EEA22030EE926000EEA2215
:10017000EE6AED6ADF50B50DF3CFE9FFF4CFEAFF89
:10018000000EE926090EEA22050EE926000EEA22F3
:10019000EF6ADF50B50DF3CFE9FFF4CFEAFF000EB1
:1001A000E926090EEA22060EE926000EEA22EF6A87
:1001B000DF50B50DF3CFE9FFF4CFEAFF000EE926DB
:1001C000090EEA22090EE926000EEA22EF6ADF5044
:1001D000B50DF3CFE9FFF4CFEAFF000EE926090ED3
:1001E000EA220A0EE926000EEA22EF6ADF50B50D78
:1001F000F3CFE9FFF4CFEAFF000EE926090EEA2269
:10020000070EE926000EEA22EF6ADF50B50DF3CFA4
:10021000E9FFF4CFEAFF000EE926090EEA220B0EF1
:10022000E926000EEA22EF6ADF50B50DF3CFE9FFB1
:10023000F4CFEAFF000EE926090EEA220C0EE926A9
:10024000000EEA22EF6ADF50B50DF3CFE9FFF4CFDD
:10025000EAFF000EE926090EEA22080EE926000E42
:10026000EA22EF6ADF50B50DF3CFE9FFF4CFEAFFE2
:10027000000EE926090EEA22020EE926000EEA2205
:10028000EF6ADE52380EDD6E010EDBCFE6FFE66A66
:10029000E66ADF50B50DF3CFE9FFF4CFEAFF000EB9
:1002A000E926090EEA227D0EE926000EEA22E9CFB0
:1002B00010F0EACF11F010C0E6FF11C0E6FF56ECD7
:1002C00013F0126E050EE15E1250010EDBCFE6FF59
:1002D000E66AE66ADF50B50DF3CFE9FFF4CFEAFF37
:1002E000000EE926090EEA220D0EE926000EEA228A
:1002F000E9CF10F0EACF11F010C0E6FF11C0E6FF21
:1003000056EC13F0126E050EE15E1250010EDBCFBB
:10031000E6FFE66AE66ADF50B50DF3CFE9FFF4CFFA
:10032000EAFF000EE926090EEA220D0EE926000E6C
:10033000EA22E9CF10F0EACF11F0380E1026000EB5
:10034000112210C0E6FF11C0E6FF56EC13F0126E4A
:10035000050EE15E1250DF2ADED6030EE15C02E2FA
:10036000E16AE552E16EE552E7CFD9FF1200D9CF3D
:10037000E6FFE1CFD9FF070EE126040EF36EFE0E75
:10038000DBCFF4FFF350F45C1EE2FC0EDBCFE9FFA1
:10039000FD0EDBCFEAFFEF50106E116AD8901150BE
:1003A00004E6800E105C000E11580DE2FC0EDBCF4F
:1003B000E9FFFD0EDBCFEAFF020EE926000EEA227E
:1003C000EE50ED1003E1000EDFEF05F0FE0EDB5006
:1003D000B50DF3CFE9FFF4CFEAFF000EE926090ED1
:1003E000EA22EE52E9CF10F0EACF11F0050E10C06C
:1003F000DBFF060E11C0DBFFFC0EDBCFE9FFFD0EBD
:10040000DBCFEAFFEECF10F0EECF11F0EECF12F01F
:10041000EECF13F0EECF14F0EFCF15F0050EDBCFDB
:10042000E9FF060EDBCFEAFF10C0EEFF11C0EEFFC2
:1004300012C0EEFF13C0EEFF14C0EEFF15C0EEFFBA
:10044000FE0EDB50B50DF3CFE9FFF4CFEAFF000E4F
:10045000E926090EEA22060EE926000EEA22EF50EE
:10046000E66EFE0EDB50B50DF3CFE9FFF4CFEAFFE9
:10047000000EE926090EEA22070EE926000EEA22FE
:10048000E552E750EF6E380EDF6EDFCFE6FFE66A2B
:10049000E66AFE0EDB50B50DF3CFE9FFF4CFEAFFBD
:1004A000000EE926090EEA227D0EE926000EEA2258
:1004B000E9CF10F0EACF11F010C0E6FF11C0E6FF5F
:1004C00056EC13F0126E050EE15E1250DFCFE6FF20
:1004D000E66AE66AFE0EDB50B50DF3CFE9FFF4CF16
:1004E000EAFF000EE926090EEA220D0EE926000EAB
:1004F000EA22E9CF10F0EACF11F010C0E6FF11C0F8
:10050000E6FF56EC13F0126E050EE15E1250DFCFDF
:10051000E6FFE66AE66AFE0EDB50B50DF3CFE9FFB3
:10052000F4CFEAFF000EE926090EEA220D0EE926B5
:10053000000EEA22E9CF10F0EACF11F0380E1026B3
:10054000000E112210C0E6FF11C0E6FF56EC13F0BA
:10055000126E050EE15E1250FE0EDB50B50DF3CFAC
:10056000E9FFF4CFEAFF000EE926090EEA22060EA3
:10057000E926000EEA22EF5001E088D1FE0EDB50A2
:10058000B50DF3CFE9FFF4CFEAFF000EE926090E1F
:10059000EA22080EE926000EEA22EF6ADF6AFE0E62
:1005A000DB50B50DF3CFE9FFF4CFEAFF000EE926EB
:1005B000090EEA22020EE926000EEA22EF50DF5C65
:1005C00001E363D1FE0EDB50B50DF3CFE9FFF4CFAD
:1005D000EAFF000EE926090EEA22080EE926000EBF
:1005E000EA22EF50EF2A106E116AFE0EDB50B50DB5
:1005F000F3CFE9FFF4CFEAFF000EE926090EEA2265
:10060000030EE926000EEA221050EE24E76E115088
:10061000EE20EA6EE7CFE9FFEF50E00FE76E040E41
:10062000E7CFDBFF040EDBCF10F010340EE2040E38
:10063000DBCF11F0630EE76E1118E8AE02D0113473
:1006400003D0E750D880115402E2040EDB6AFE0E9C
:10065000DB50B50DF3CFE9FFF4CFEAFF000EE9263A
:10066000090EEA22080EE926000EEA22EFCF10F06A
:10067000FE0EDB50B50DF3CFE9FFF4CFEAFF000E1D
:10068000E926090EEA22050EE926000EEA22EF50BD
:10069000105C10E3FE0EDB50B50DF3CFE9FFF4CF95
:1006A000EAFF000EE926090EEA22080EE926000EEE
:1006B000EA22EF6A010EDB6A070EF36E010EDBCF52
:1006C000F4FFF350F45C01E3DED0040EDBCF14F052
:1006D000156A14BE1568030ED89014361536E80650
:1006E000FBE1140E14261B0E1522010EDB500F0128
:1006F0001424F66E000E1520F76E0800F550E66E15
:10070000FE0EDB50B50DF3CFE9FFF4CFEAFF000E8C
:10071000E926090EEA227D0EE926000EEA22E9CF3B
:1007200012F0EACF13F0010EDB50080D1250F32443
:10073000106E1350F420116EDF500F011024E96E7B
:10074000000E1120EA6EE552E750EF6EFE0EDB5010
:10075000B50DF3CFE9FFF4CFEAFF000EE926090E4D
:10076000EA227D0EE926000EEA22E9CF16F0EACF52
:1007700017F0010EDB50080D1650F324146E1750BD
:10078000F420156EDF500F011424E96E000E1520C1
:10079000EA6EEF50E66EFE0EDB50B50DF3CFE9FFCB
:1007A000F4CFEAFF000EE926090EEA220D0EE92633
:1007B000000EEA22E9CF12F0EACF13F0010EDB506F
:1007C000080D1250F324106E1350F420116EDF50F8
:1007D0000F011024E96E000E1120EA6EE552E75079
:1007E000EF6EFE0EDB50B50DF3CFE9FFF4CFEAFF5D
:1007F000000EE926090EEA227D0EE926000EEA2205
:10080000E9CF16F0EACF17F0010EDB50080D1650B5
:10081000F324146E1750F420156EDF500F011424CA
:10082000E96E000E1520EA6EEF50E66EFE0EDB500C
:10083000B50DF3CFE9FFF4CFEAFF000EE926090E6C
:10084000EA220D0EE926000EEA22E9CF12F0EACFE5
:1008500013F0380E1226000E1322010EDB50080D85
:100860001250F324106E1350F420116EDF500F015C
:100870001024E96E000E1120EA6EE552E750EF6E8B
:10088000010EDB2A19D7DF2A8AD687D1FE0EDB506C
:10089000B50DF3CFE9FFF4CFEAFF000EE926090E0C
:1008A000EA22080EE926000EEA22EF6ADF6AFE0E4F
:1008B000DB50B50DF3CFE9FFF4CFEAFF000EE926D8
:1008C000090EEA22020EE926000EEA22EF50DF5C52
:1008D00001E363D1FE0EDB50B50DF3CFE9FFF4CF9A
:1008E000EAFF000EE926090EEA22080EE926000EAC
:1008F000EA22EF50EF2A106E116AFE0EDB50B50DA2
:10090000F3CFE9FFF4CFEAFF000EE926090EEA2251
:10091000030EE926000EEA221050EE24E76E115075
:10092000EE20EA6EE7CFE9FFEF50E00FE76E040E2E
:10093000E7CFDBFF040EDBCF10F010340EE2040E25
:10094000DBCF11F0630EE76E1118E8AE02D0113460
:1009500003D0E750D880115402E2040EDB6AFE0E89
:10096000DB50B50DF3CFE9FFF4CFEAFF000EE92627
:10097000090EEA22080EE926000EEA22EFCF10F057
:10098000FE0EDB50B50DF3CFE9FFF4CFEAFF000E0A
:10099000E926090EEA22050EE926000EEA22EF50AA
:1009A000105C10E3FE0EDB50B50DF3CFE9FFF4CF82
:1009B000EAFF000EE926090EEA22080EE926000EDB
:1009C000EA22EF6A010EDB6A070EF36E010EDBCF3F
:1009D000F4FFF350F45C01E3DED0040EDBCF14F03F
:1009E000156A14BE1568030ED89014361536E8063D
:1009F000FBE1140E14261B0E1522010EDB500F0115
:100A00001424F66E000E1520F76E0800F550E66E01
:100A1000FE0EDB50B50DF3CFE9FFF4CFEAFF000E79
:100A2000E926090EEA227D0EE926000EEA22E9CF28
:100A300012F0EACF13F0010EDB50080D1250F32430
:100A4000106E1350F420116EDF500F011024E96E68
:100A5000000E1120EA6EE552E750EF6EFE0EDB50FD
:100A6000B50DF3CFE9FFF4CFEAFF000EE926090E3A
:100A7000EA227D0EE926000EEA22E9CF16F0EACF3F
:100A800017F0010EDB50080D1650F324146E1750AA
:100A9000F420156EDF500F011424E96E000E1520AE
:100AA000EA6EEF50E66EFE0EDB50B50DF3CFE9FFB8
:100AB000F4CFEAFF000EE926090EEA220D0EE92620
:100AC000000EEA22E9CF12F0EACF13F0010EDB505C
:100AD000080D1250F324106E1350F420116EDF50E5
:100AE0000F011024E96E000E1120EA6EE552E75066
:100AF000EF6EFE0EDB50B50DF3CFE9FFF4CFEAFF4A
:100B0000000EE926090EEA227D0EE926000EEA22F1
:100B1000E9CF16F0EACF17F0010EDB50080D1650A2
:100B2000F324146E1750F420156EDF500F011424B7
:100B3000E96E000E1520EA6EEF50E66EFE0EDB50F9
:100B4000B50DF3CFE9FFF4CFEAFF000EE926090E59
:100B5000EA220D0EE926000EEA22E9CF12F0EACFD2
:100B600013F0380E1226000E1322010EDB50080D72
:100B70001250F324106E1350F420116EDF500F0149
:100B80001024E96E000E1120EA6EE552E750EF6E78
:100B9000010EDB2A19D7DF2A8AD6FE0EDB50B50DEF
:100BA000F3CFE9FFF4CFEAFF000EE926090EEA22AF
:100BB000080EE926000EEA22EF6A010E00D0106E40
:100BC000070EE15C02E2E16AE552E16E1050E55287
:100BD000E7CFD9FF1200D9CFE6FFE1CFD9FFFE0E54
:100BE000DB50B50DF3CFE9FFF4CFEAFF000EE926A5
:100BF000090EEA22060EE926000EEA22FD0EDBCFE0
:100C0000EFFFFE0EDB50B50DF3CFE9FFF4CFEAFFA7
:100C1000000EE926090EEA22070EE926000EEA2256
:100C2000FD0EDBCFEFFFE552E7CFD9FF1200D9CFA2
:100C3000E6FFE1CFD9FF020EE126FD0EDB50106E7C
:100C4000116AFE0EDB50B50DF3CFE9FFF4CFEAFFDA
:100C5000000EE926090EEA22030EE926000EEA221A
:100C60001050EE24E76E1150EE20EA6EE7CFE9FF58
:100C7000EF50E00FE76E010EE7CFDBFFDF6A070EF4
:100C8000DF5C01E3B5D0010EDB50080DF3CF14F0AB
:100C9000F4CF15F0140E14261B0E1522DF500F0191
:100CA0001424F66E000E1520F76E0800F550E66E5F
:100CB000FE0EDB50B50DF3CFE9FFF4CFEAFF000ED7
:100CC000E926090EEA227D0EE926000EEA22E9CF86
:100CD00012F0EACF13F0DF50080D1250F324106E1B
:100CE0001350F420116EFD0EDB500F011024E96E3D
:100CF000000E1120EA6EE552E750EF6EDF50080D4E
:100D0000F3CF14F0F4CF15F07D0E1426090E152242
:100D1000FD0EDB500F011424E96E000E1520EA6E63
:100D2000EF50E66EFE0EDB50B50DF3CFE9FFF4CFCA
:100D3000EAFF000EE926090EEA220D0EE926000E52
:100D4000EA22E9CF12F0EACF13F0DF50080D12507B
:100D5000F324106E1350F420116EFD0EDB500F01C2
:100D60001024E96E000E1120EA6EE552E750EF6E96
:100D7000DF50080DF3CF14F0F4CF15F07D0E1426DC
:100D8000090E1522FD0EDB500F011424E96E000E32
:100D90001520EA6EEF50E66EFE0EDB50B50DF3CF78
:100DA000E9FFF4CFEAFF000EE926090EEA220D0E54
:100DB000E926000EEA22E9CF12F0EACF13F0380E4E
:100DC0001226000E1322DF50080D1250F324106E6D
:100DD0001350F420116EFD0EDB500F011024E96E4C
:100DE000000E1120EA6EE552E750EF6EDF2A47D77A
:100DF000020EE15C02E2E16AE552E16EE552E7CF04
:100E0000D9FF1200D9CFE6FFE1CFD9FFE652FE0E9F
:100E1000DB50B50DF3CFE9FFF4CFEAFF000EE92672
:100E2000090EEA22EE52EF6AFE0EDB50B50DF3CF4B
:100E3000E9FFF4CFEAFF000EE926090EEA22030ECD
:100E4000E926000EEA22EE6AED6AFE0EDB50B50DD1
:100E5000F3CFE9FFF4CFEAFF000EE926090EEA22FC
:100E6000050EE926000EEA22EF6AFE0EDB50B50DF4
:100E7000F3CFE9FFF4CFEAFF000EE926090EEA22DC
:100E8000060EE926000EEA22EF6AFE0EDB50B50DD3
:100E9000F3CFE9FFF4CFEAFF000EE926090EEA22BC
:100EA000090EE926000EEA22EF6AFE0EDB50B50DB0
:100EB000F3CFE9FFF4CFEAFF000EE926090EEA229C
:100EC0000A0EE926000EEA22EF6AFE0EDB50B50D8F
:100ED000F3CFE9FFF4CFEAFF000EE926090EEA227C
:100EE000070EE926000EEA22EF6AFE0EDB50B50D72
:100EF000F3CFE9FFF4CFEAFF000EE926090EEA225C
:100F00000B0EE926000EEA22EF6AFE0EDB50B50D4D
:100F1000F3CFE9FFF4CFEAFF000EE926090EEA223B
:100F20000C0EE926000EEA22EF6AFE0EDB50B50D2C
:100F3000F3CFE9FFF4CFEAFF000EE926090EEA221B
:100F4000080EE926000EEA22EF6AFE0EDB50B50D10
:100F5000F3CFE9FFF4CFEAFF000EE926090EEA22FB
:100F6000020EE926000EEA22EF6A380EDF6EDFCFAE
:100F7000E6FFE66AE66AFE0EDB50B50DF3CFE9FF49
:100F8000F4CFEAFF000EE926090EEA227D0EE926DB
:100F9000000EEA22E9CF10F0EACF11F010C0E6FF10
:100FA00011C0E6FF56EC13F0126E050EE15E125012
:100FB000DFCFE6FFE66AE66AFE0EDB50B50DF3CF43
:100FC000E9FFF4CFEAFF000EE926090EEA220D0E32
:100FD000E926000EEA22E9CF10F0EACF11F010C0A6
:100FE000E6FF11C0E6FF56EC13F0126E050EE15E4F
:100FF0001250DFCFE6FFE66AE66AFE0EDB50B50D63
:10100000F3CFE9FFF4CFEAFF000EE926090EEA224A
:101010000D0EE926000EEA22E9CF10F0EACF11F01A
:10102000380E1026000E112210C0E6FF11C0E6FF98
:1010300056EC13F0126E050EE15E1250E552E552C9
:10104000E7CFD9FF1200D9CFE6FFE1CFD9FF050ED8
:10105000E126DF6A040EDF5C01E3BED3DF50B50D8D
:10106000F3CFE9FFF4CFEAFF000EE926090EEA22EA
:10107000060EE926000EEA22EF5021E0DF50B50D02
:10108000F3CFE9FFF4CFEAFF000EE926090EEA22CA
:10109000070EE926000EEA22EF06DF50B50DF3CF6A
:1010A000E9FFF4CFEAFF000EE926090EEA22070E57
:1010B000E926000EEA22EF50000801E28BD3DF5050
:1010C000B50DF3CFE9FFF4CFEAFF000EE926090ED4
:1010D000EA22060EE926000EEA22EF50E66EDF5005
:1010E000B50DF3CFE9FFF4CFEAFF000EE926090EB4
:1010F000EA22070EE926000EEA22E552E750EF6EDB
:101100009D90DF50B50DF3CFE9FFF4CFEAFF000E5D
:10111000E926090EEA22090EE926000EEA22EF501E
:1011200025E1DF50B50DF3CFE9FFF4CFEAFF000E64
:10113000E926090EEA220C0EE926000EEA22EF50FB
:1011400002E1010E01D0000EE66EDF50B50DF3CFC7
:10115000E9FFF4CFEAFF000EE926090EEA220B0EA2
:10116000E926000EEA22E552E750EF6EDF50B50D9A
:10117000F3CFE9FFF4CFEAFF000EE926090EEA22D9
:10118000090EE926000EEA22EF0402E19D8022D337
:101190009D80DF50B50DF3CFE9FFF4CFEAFF000EDD
:1011A000E926090EEA22060EE926000EEA22EF5091
:1011B00001E1FED2010EDB6A070EF36E010EDBCFFA
:1011C000F4FFF350F45C01E383D2010EF36E020EE0
:1011D000F3CFDBFFDF50B50DF3CFE9FFF4CFEAFF2C
:1011E000000EE926090EEA22020EE926000EEA2286
:1011F000EF50F36E020EDBCFF4FFF350F45C01E32B
:1012000013D1DF50B50DF3CFE9FFF4CFEAFF000EA5
:10121000E926090EEA227D0EE926000EEA22E9CF30
:1012200012F0EACF13F0010EDB50080D1250F32438
:10123000106E1350F420116E020EDB040F01102407
:10124000E96E000E1120EA6EEF9EEF46070EE66E85
:10125000DF50B50DF3CFE9FFF4CFEAFF000EE9262A
:10126000090EEA227D0EE926000EEA22E9CF12F0ED
:10127000EACF13F0010EDB50080D1250F324106E6C
:101280001350F420116E020EDB500F011024E96E92
:10129000000E1120EA6EEF50E66E2DEC00F0E552E4
:1012A000E55201082FE1030EE66EDF50B50DF3CFD6
:1012B000E9FFF4CFEAFF000EE926090EEA227D0ECF
:1012C000E926000EEA22E9CF14F0EACF15F0010E6C
:1012D000DB50080D1450F324126E1550F420136ED9
:1012E000020EDB0400011224106E000E1320116E9A
:1012F00010C0E6FF11C0E6FF4DEC00F0E552E552EC
:10130000E5522ED0030EE66EDF50B50DF3CFE9FFA8
:10131000F4CFEAFF000EE926090EEA227D0EE92647
:10132000000EEA22E9CF14F0EACF15F0010EDB50EF
:10133000080D1450F324126E1550F420136E020E93
:10134000DB0400011224106E000E1320116E10C079
:10135000E6FF11C0E6FF68EC00F0E552E552E55209
:10136000DF50B50DF3CFE9FFF4CFEAFF000EE92619
:10137000090EEA227D0EE926000EEA22E9CF18F0D6
:10138000EACF19F0010EDB50080D1850F324166E49
:101390001950F420176E020EDB040F011624E96EBB
:1013A000000E1720EA6EEF50E66EDF50B50DF3CF5A
:1013B000E9FFF4CFEAFF000EE926090EEA220D0E3E
:1013C000E926000EEA22E9CF14F0EACF15F0DF504B
:1013D000B50DF3CFE9FFF4CFEAFF000EE926090EC1
:1013E000EA220B0EE926000EEA22EF50380D1450C7
:1013F000F324126E1550F420136E010EDB50080D0D
:101400001250F324106E1350F420116E020EDB0400
:101410000F011024E96E000E1120EA6EE552E7502C
:10142000EF6E020EDB2AD6D6DF50B50DF3CFE9FF03
:10143000F4CFEAFF000EE926090EEA227D0EE92626
:10144000000EEA22E9CF12F0EACF13F0010EDB50D2
:10145000080D1250F324106E1350F420116E020E7A
:10146000DB040F011024E96E000E1120EA6EEF9EDE
:10147000EF46DF50B50DF3CFE9FFF4CFEAFF000EE2
:10148000E926090EEA22080EE926000EEA22EF50AC
:10149000106E116ADF50B50DF3CFE9FFF4CFEAFF0C
:1014A000000EE926090EEA22030EE926000EEA22C2
:1014B0001050EE24E76E1150EE20EA6EE7CFE9FF00
:1014C000EF50E00FE76E030EE7CFDBFF000EF36E89
:1014D000030EDBCFF4FFF350F45C04E3030EDB50A8
:1014E000630802E2030EDB6A030EDB50080DF3CF44
:1014F00010F0F4CF11F0140E10261B0E1122010E65
:10150000DB500F011024F66E000E1120F76E08005C
:10151000040EF5CFDBFF070E106EDF50B50DF3CFD5
:10152000E9FFF4CFEAFF000EE926090EEA220A0ECF
:10153000E926000EEA22EF50105CE66E040EDBCFC7
:10154000E6FF2DEC00F0E552E55201082FE1030E15
:10155000E66EDF50B50DF3CFE9FFF4CFEAFF000EE2
:10156000E926090EEA227D0EE926000EEA22E9CFDD
:1015700014F0EACF15F0010EDB50080D1450F324DF
:10158000126E1550F420136E020EDB0400011224BB
:10159000106E000E1320116E10C0E6FF11C0E6FFA2
:1015A0004DEC00F0E552E552E5522ED0030EE66E0A
:1015B000DF50B50DF3CFE9FFF4CFEAFF000EE926C7
:1015C000090EEA227D0EE926000EEA22E9CF14F088
:1015D000EACF15F0010EDB50080D1450F324126E03
:1015E0001550F420136E020EDB0400011224106E5D
:1015F000000E1320116E10C0E6FF11C0E6FF68EC6C
:1016000000F0E552E552E552DF50B50DF3CFE9FFAA
:10161000F4CFEAFF000EE926090EEA227D0EE92644
:10162000000EEA22E9CF18F0EACF19F0010EDB50E4
:10163000080D1850F324166E1950F420176E020E80
:10164000DB040F011624E96E000E1720EA6EEF503E
:10165000E66EDF50B50DF3CFE9FFF4CFEAFF000EE1
:10166000E926090EEA220D0EE926000EEA22E9CF4C
:1016700014F0EACF15F0DF50B50DF3CFE9FFF4CF4A
:10168000EAFF000EE926090EEA220B0EE926000EFB
:10169000EA22EF50380D1450F324126E1550F42046
:1016A000136E010EDB50080D1250F324106E135010
:1016B000F420116E020EDB040F011024E96E000EFF
:1016C0001120EA6EE552E750EF6E010EDB2A74D569
:1016D000DF50B50DF3CFE9FFF4CFEAFF000EE926A6
:1016E000090EEA220A0EE926000EEA22EF2ADF504E
:1016F000B50DF3CFE9FFF4CFEAFF000EE926090E9E
:10170000EA220A0EE926000EEA22EFCF10F0050EBB
:10171000105C4EE3DF50B50DF3CFE9FFF4CFEAFFE5
:10172000000EE926090EEA22080EE926000EEA223A
:10173000EF2ADF50B50DF3CFE9FFF4CFEAFF000E3B
:10174000E926090EEA22080EE926000EEA22EFCF6A
:1017500010F0DF50B50DF3CFE9FFF4CFEAFF000E34
:10176000E926090EEA22050EE926000EEA22EF50CC
:10177000105C0FE3DF50B50DF3CFE9FFF4CFEAFFC4
:10178000000EE926090EEA22080EE926000EEA22DA
:10179000EF6ADF50B50DF3CFE9FFF4CFEAFF000E9B
:1017A000E926090EEA220A0EE926000EEA22EF6A6D
:1017B0009D90DF50B50DF3CFE9FFF4CFEAFF000EA7
:1017C000E926090EEA22090EE926000EEA22010E98
:1017D000EF6E9D80DF2A3ED4050EE15C02E2E16AF5
:1017E000E552E16EE552E7CFD9FF1200D9CFE6FF0F
:1017F000E1CFD9FF040EE1268090809280948096FC
:101800008098809A84908492020EDB6A040EF36EB4
:10181000020EDBCFF4FFF350F45C01E390D0030E33
:10182000DB6A020EDB50B50DF3CFE9FFF4CFEAFF20
:10183000000EE926090EEA22020EE926000EEA222F
:10184000EF50F36E030EDBCFF4FFF350F45C74E261
:10185000020EDB50B50DF3CFE9FFF4CFEAFF000E27
:10186000E926090EEA220D0EE926000EEA22E9CF4A
:1018700014F0EACF15F0020EDB50B50DF3CFE9FFFF
:10188000F4CFEAFF000EE926090EEA220C0EE92643
:10189000000EEA22EF50380D1450F324126E15504A
:1018A000F420136E0B01D451080D1250F324106E66
:1018B0001350F420116E030EDB500F011024E96E5B
:1018C000000E1120EA6EEFCFDFFF030EDBCFE6FF45
:1018D000020EDB50B50DF3CFE9FFF4CFEAFF000EA7
:1018E000E926090EEA22EE52EF50E552E724E76EB0
:1018F000010EE7CFDBFF400EF36E010EDBCFF4FFEE
:10190000F350F45C0AE3800E106E010EDBCFE7FFAC
:101910001050E726010EE7CFDBFF010EDB50816E92
:10192000DF1C836E8494040EE66E9DEC13F0E5528A
:101930008484030EDB2A75D7020EDB2A67D70B01DE
:10194000D451070A4EE0010A43E0030A38E0010AD5
:101950002DE0070A22E0010A17E0030A0CE0010A61
:1019600001E048D080808092809480968098809A10
:101970008490849240D080908082809480968098D9
:10198000809A8490849237D08090809280848096D0
:101990008098809A849084922ED0809080928094B7
:1019A00080868098809A8490849225D080908092BE
:1019B000809480968088809A849084921CD08090B5
:1019C0008092809480968098808A8490849213D0AC
:1019D00080908092809480968098809A848084926F
:1019E0000AD080908092809480968098809A84908B
:1019F000848201D000D00B01D42B0B01D4510708F5
:101A000057E20B01D46B020EDB6A040EF36E020E7A
:101A1000DBCFF4FFF350F45C4BE2020EDB50B50D6C
:101A2000F3CFE9FFF4CFEAFF000EE926090EEA2220
:101A3000090EE926000EEA22EF0437E1020EDB5020
:101A4000B50DF3CFE9FFF4CFEAFF000EE926090E4A
:101A5000EA220C0EE926000EEA22EF5002E1010E06
:101A600001D0000EE66E020EDB50B50DF3CFE9FF9C
:101A7000F4CFEAFF000EE926090EEA220C0EE92651
:101A8000000EEA22E552E750EF6E020EDB50B50D74
:101A9000F3CFE9FFF4CFEAFF000EE926090EEA22B0
:101AA000090EE926000EEA22EF6A020EDB2AADD704
:101AB000040EE15C02E2E16AE552E16EE552E7CF35
:101AC000D9FF1200D9CFE6FFE1CFD9FF400EF36E68
:101AD000FE0EDBCFF4FFF350F45C0AE3800E106ED1
:101AE000FE0EDBCFE7FF1050E726FE0EE7CFDBFF51
:101AF0008484FE0EDB50816EFD0EDB50836E849479
:101B0000280EE66E9DEC13F0E5528484E552E7CF93
:041B1000D9FF1200E7
:0C1B140000000000000000002020202045
:101B20000000200050505000000000005050F850BD
:101B3000F85050002078A07028F02000C0C8102075
:101B4000409818006090A040A89068006020400075
:101B500000000000102040404020100040201010E5
:101B6000102040000020A870A8200000002020F8CD
:101B70002020000000000000301020000000007C49
:101B8000000000000000000000606000000810205D
:101B900040800000708898A8C88870002060A0204D
:101BA0002020F800708808102040F800F81020105D
:101BB0000888700010305090F8101000F880F0087D
:101BC0000808F000304080F088887000F808102085
:101BD00040404000708888708888700070888878DD
:101BE000081060000060600060600000006060003D
:101BF0006020400008102040201008000000F8007D
:101C0000F8000000402010081020400070880810E4
:101C10002000200070880868A8A87000205088F86C
:101C200088888800F08888F08888F0007088808034
:101C300080887000E09088888890E000F88080F0CC
:101C40008080F800F88080F080808000708880B804
:101C500088887800888888F888888800F82020207C
:101C60002020F80038101010109060008890A0C05C
:101C7000A0908800808080808080F80088D8A8A804
:101C8000888888008888C8A898888800708888888C
:101C900088887000F08888F080808000708888884C
:101CA000A8906800F08888F0A09088007880807004
:101CB0000808F000F820202020202000888888884C
:101CC000888870008888888888502000888888A83C
:101CD000A8A850008888502050888800888888509C
:101CE00020202000F80810204080F800704040407C
:101CF000404070008850F820F8202000701010102C
:101D0000101070002050880000000000000000004B
:101D10000000F800402010000000000000007008E3
:101D2000788878008080B0C88888F00000007080D3
:101D3000808870000808689888887800000070889B
:101D4000F8807000304840E04040400000788888CB
:101D5000780870008080B0C88888880020006020E3
:101D60002020700008000808084830004040485013
:101D70006050480060202020202070000000D0A883
:101D8000A88888000000B0C8888888000000708893
:101D9000888870000000F088F0808000000068985B
:101DA000780808000000B0C88080800000007080C3
:101DB0007008F0004040E040404830000000888853
:101DC0008898680000008888885020000000888873
:101DD000A8A8500000008850205088000000888883
:101DE000780870000000F8102040F8001020204013
:101DF000202010002020202020202000201010086B
:101E000010102000002010F810200000002040F8E2
:101E10004020000030484830000000003048483082
:101E2000000000000818387838180800040404047A
:101E300004040400FFFFFFFFFFFFFF000004040095
:101E4000040400000080800080800000808080808A
:101E500080808000C0C0C0C0C0C0C000E0E0E0E042
:101E6000E0E0E000F0F0F0F0F0F0F000F8F8F8F862
:101E7000F8F8F800FCFCFCFCFCFCFC00FDFDFDFDA2
:101E8000FDFDFD002070F870707070003048848493
:101E900084483000844830303048840000704870F6
:101EA00040400000003040701060000000404040A2
:101EB0004078000000008005C004E003F002F80153
:0C1EC00000000804180338027801F80044
:041ECC00DACFE4FF86
:101ED000E2CFDAFFE9CFE4FFEACFE4FFF6CFE4FF99
:101EE000F7CFE4FFF5CFE4FFF3CFE4FFF4CFE4FF57
:101EF000FACFE4FF00EE00F0100EE80403E3EECFAB
:101F0000E4FFFBD700EE10F00A0EE80403E3EECF87
:101F1000E4FFFBD7E652F2940F010C2B000E0D23C9
:101F20000E230F230F01102B000E11230F01122B74
:101F3000000E13230F01142B000E15230F01025165
:101F4000031107E005D003CFFAFF0F010251F96E2C
:101F5000FADF00CFE6FF01CFE6FF1EEC13F0E552FB
:101F6000E552E55200EE19F00A0EE80403E3E5CF6E
:101F7000EDFFFBD700EE0FF0100EE80403E3E5CF12
:101F8000EDFFFBD7E5CFFAFFE5CFF4FFE5CFF3FF99
:101F9000E5CFF5FFE5CFF7FFE5CFF6FFE5CFEAFFA9
:101FA000E5CFE9FFE5CFDAFF1100DACFE4FFE2CFBA
:101FB000DAFFE9CFE4FFEACFE4FFF6CFE4FFF7CFA3
:101FC000E4FFF5CFE4FFF3CFE4FFF4CFE4FFFACF73
:101FD000E4FF00EE00F0100EE80403E3EECFE4FFB0
:101FE000FBD700EE10F00A0EE80403E3EECFE4FFA7
:101FF000FBD7E6529E9004CFE6FF05CFE6FF02EC4A
:1020000013F0E552E5520F010651071107E005D024
:1020100007CFFAFF0F010651F96EFADFE55200EE25
:1020200019F00A0EE80403E3E5CFEDFFFBD700EE5D
:102030000FF0100EE80403E3E5CFEDFFFBD7E5CF8B
:10204000FAFFE5CFF4FFE5CFF3FFE5CFF5FFE5CFEE
:10205000F7FFE5CFF6FFE5CFEAFFE5CFE9FFE5CFF4
:10206000DAFF1100DACFE4FFE2CFDAFFE9CFE4FFD5
:10207000EACFE4FFF6CFE4FFF7CFE4FFF5CFE4FFCC
:10208000F3CFE4FFF4CFE4FFFACFE4FF00EE00F07B
:10209000100EE80403E3EECFE4FFFBD700EE10F0F0
:1020A0000A0EE80403E3EECFE4FFFBD7E6529E926C
:1020B00008CFBBFF0F010A510B1107E005D00BCF72
:1020C000FAFF0F010A51F96EFADFE55200EE19F03E
:1020D0000A0EE80403E3E5CFEDFFFBD700EE0FF0B7
:1020E000100EE80403E3E5CFEDFFFBD7E5CFFAFFE1
:1020F000E5CFF4FFE5CFF3FFE5CFF5FFE5CFF7FF41
:10210000E5CFF6FFE5CFEAFFE5CFE9FFE5CFDAFF60
:102110001100D9CFE6FFE1CFD9FF9F0EE66E3AEC72
:1021200013F0E552FD0EDBCF00FFFE0EDBCF01FF0B
:10213000FB0EDBCF02FFFC0EDBCF03FFFD0EDBCF80
:10214000E6FFFE0EDBCFE6FF1EEC13F0E552E55294
:10215000E552E7CFD9FF1200D9CFE6FFE1CFD9FF93
:10216000020EE126830EDF6EDE520C0EDD6E010ED6
:10217000DBCFE6FFDFCFE6FFB4EC12F0E552E5522D
:10218000FD0EDBCFE6FFFE0EDBCFE6FF02EC13F029
:10219000E552E5529F809D80FD0EDBCF04FFFE0ED1
:1021A000DBCF05FFFB0EDBCF06FFFC0EDBCF07FF0F
:1021B000020EE15C02E2E16AE552E16EE552E7CF30
:1021C000D9FF1200D9CFE6FFE1CFD9FF070EBA6ED3
:1021D0009F829D82FE0EDB50BB6EFE0EDB500F0118
:1021E000086F096BFC0EDBCF0AFFFD0EDBCF0BFF88
:0821F000E552E7CFD9FF120010
:0821F800D9CFE6FFE1CFD9FFCA
:10220000080EE126DE6A240EDE6EF40EDE6EDD6A56
:10221000DD52DD52DECF05F0DECF06F0DECF07F077
:10222000DDCF08F0DD52DD52055007E1240E06181F
:1022300004E1F40E071801E108501FE0055008E121
:10224000480E061805E1E80E071802E1010E08180D
:1022500010E0055008E1900E061805E1D00E0718B1
:1022600002E1030E081801E000D0700ED36E9B8CC3
:1022700008D0600ED36E9B8C04D0700ED36E9B9CE6
:1022800000D0D9CFE9FFDACFEAFFEECF10F0EECFE2
:1022900011F0EECF12F0EFCF13F0020ED890133200
:1022A000123211321032E806F9E1040E10C0DBFFE1
:1022B000050E11C0DBFF060E12C0DBFF070E13C0B8
:1022C000DBFFD950040FE96EDACFEAFFE80E096EA2
:1022D000030E0A6E0B6A0C6AEECF04F0EECF05F027
:1022E000EECF06F0EFCF07F0DEEC12F007C0EDFF07
:1022F00006C0EDFF05C0EDFF04C0EFFF13681468D2
:10230000156A040EDBCF16F0050EDBCF17F0186A46
:102310001650135C106E17501458116E1850155843
:10232000126E10C020FF11C021FFC26A0F01386B6E
:102330000F01396B0F013A6B0F013B6B0F013C6BC7
:10234000949296948484956A936A816A929080901C
:10235000929280929294809492968096929880988D
:10236000929A809A96908490080EE15C02E2E16A6B
:0C237000E552E16EE552E7CFD9FF120004
:04237C00D9CFE6FFD0
:10238000E1CFD9FF140EE126040EDB6AD950050F08
:10239000E96EDACFEAFFEE6AEE6AEE6AEE6AEE6A9C
:1023A000D9500A0FE96EDACFEAFF4C0EEE6E490EF5
:1023B000EE6E4E0EEE6E450EEE6E200EEE6EEE6A78
:1023C000EE6AEE6AEE6AEE6AFCEC10F0000EE66E63
:1023D000E66A20CFE6FF21CFE6FF89EC10F0E55258
:1023E000E552E552E552EC0EE66E170EE66E2F0E44
:1023F000E66EF80EE66EACEC10F0E552E552E552F2
:10240000E55211EC00F0F40EDE6E010EDE6EDE6AB7
:10241000DD6ADD52DD52E66A02EC07F0E552040E99
:10242000DB6A060EF36E050EF3CFDBFF050EF36ECF
:10243000080EF3CFDBFFD9500A0F106EDACF11F080
:10244000060E10C0DBFF070E11C0DBFF030EF36E9C
:10245000090EF3CFDBFFD950040FE66E000EDA2031
:10246000E66EE66AB7EC01F0E552E552E552D9CFE7
:10247000E9FFDACFEAFFEE500F010C5DEE500F01DD
:102480000D59EE500F010E59EE500F010F5907E391
:1024900083EC13F00F010C6B0D6B0E6B0F6B0F01C8
:1024A000320E145D000E155905E323EC08F00F0100
:1024B000146B156BDCD7140EE15C02E2E16AE552A5
:0A24C000E16EE552E7CFD9FF1200EC
:0624CA00280EF66E000E64
:1024D000F76E000EF86E0F010900F5501B6F090032
:1024E000F5501C6F03E11B6701D03DD00900F5508A
:1024F000166F0900F550176F0900F550186F0900A5
:102500000900F550E96E0900F550EA6E090009006E
:102510000900F550196F0900F5501A6F09000900FC
:10252000F6CF1DFFF7CF1EFFF8CF1FFF16CFF6FF28
:1025300017CFF7FF18CFF8FF0F01195302E11A5315
:1025400007E00900F550EE6E1907F8E21A07F9D70F
:102550001DCFF6FF1ECFF7FF1FCFF8FF0F011B07A0
:08256000000E1C5BBFD7120046
:08256800D9CFE6FFDACFE6FF50
:10257000E1CFD9FFE2CFDAFFFC0EDB50F30BCC6EDC
:10258000FD0EDB507F0BE824CD6ECF6ACE6A9E90A5
:10259000FD0EDBAE02D09D8001D09D90A490FC0E7C
:1025A000DBA402D0A38001D0A390CCBECC86CD808A
:0C25B000E552E5CFDAFFE7CFD9FF1200BB
:0425BC00036A026A42
:1025C000016A006A200EE76ED8900436053606369A
:1025D000073600360136023603360950005C0A50D1
:1025E00001580B5002580C50035809E30950005E83
:1025F0000A50015A0B50025A0C50035A042AE72E73
:04260000E4D7120009
:0C260400D9CFE6FFDACFE6FFE1CFD9FF27
:10261000E2CFDAFFE652E652FC0EDBCFDEFFDBCF85
:10262000DDFF010EDB50CF6EDF50CE6EE552E5527E
:0C263000E552E5CFDAFFE7CFD9FF12003A
:04263C00D9CFE6FF0D
:10264000DACFE6FFE1CFD9FFE2CFDAFFE652E6527A
:10265000FC0EDBCFDEFFDBCFDDFF010EDB50D76EE4
:10266000DF50D66EE552E552E552E5CFDAFFE7CF0F
:04267000D9FF12007C
:0C267400D9CFE6FFDACFE6FFE1CFD9FFB7
:10268000E2CFDAFFFD0EDB507F0BD56ED76AD66A3C
:10269000F294FD0EDBAE02D0F28A01D0F29AD58E12
:0C26A000E552E5CFDAFFE7CFD9FF1200CA
:0426AC00FE0EE3CF6C
:1026B000E9FFFF0EE3CFEAFFE9CFF3FFEACFF4FF34
:1026C000FB0EE35003E1FC0EE35009E0FB0EE306D2
:1026D00002E2FC0EE306FD0EE350EE6EF1D71200AF
:1026E000380EF36E00EE00F00F0E01D81200EA6013
:1026F00002D0EE6AFCD7F350E9601200EE6AFCD714
:102700000F01236B12000F01230504E10F01236B5E
:0E271000829204D00F01010E236F828212000C
:02271E0010EEBB
:1027200060F020EE60F0F86A0F9C65EC12F003ECAC
:0A27300000F0BEEC11F0FBD7120020
:06273A00FF0EE350E84E23
:102740001200000000D000D000D0E82EFAD712000E
:102750000000000000000000000000000000000079
:102760000000000000000000000000000000000069
:102770000000000000000000000000000000000059
:102780000000000000000000000000000000000049
:052A20000000000000B1
:0B2A25000000000000000000000000A6
:0B2A300000000000000000000000009B
:012A3B00009A
:022A3C00000098
:020000040030CA
:0100010008F6
:0100020001FC
:0100030024D8
:01000500BD3D
:010006008079
:010008000FE8
:01000900C036
:01000A000FE6
:01000B00E014
:01000C000FE4
:01000D0040B2
:00000001FF
